:020000040800F2
:1000000000000220991E0008811C0008871C0008BF
:100010008D1C0008931C0008991C000800000000BB
:100020000000000000000000000000009F1C00080D
:10003000AD1C000800000000BB1C0008C91C000823
:10004000E91E0008E91E0008E91E0008E91E000874
:10005000E91E0008E91E0008E91E0008E91E000864
:10006000E91E0008E91E0008E91E0008E91E000854
:10007000E91E0008E91E0008E91E0008E91E000844
:10008000E91E0008E91E0008E91E00080000000043
:10009000000000000000000000000000E91E000851
:1000A000E91E0008E91E0008E91E0008E91E000814
:1000B000E91E0008E91E0008E91E0008E91E000804
:1000C000E91E0008E91E0008E91E0008E91E0008F4
:1000D000E91E0008E91E0008E91E000800000000F3
:1000E000E91E0008E91E0008E91E000800000000E3
:1000F000000000000000000000000000E91E0008F1
:1001000000000000E91E0008E91E0008E91E0008C2
:1001100000000000000000000000000000000000DF
:10012000E91E0008E91E0008E91E0008E91E000893
:10013000E91E0008000000000000000000000000B0
:10014000000000000000000000000000D51C0008B6
:10015000E91E0008E91E0008E91E0008E91E000863
:10016000E91E0008E91E0008000000000000000071
:10017000000000000000000000000000000000007F
:1001800000000000E91E0008000000000000000060
:08019000E91E0008E91E000849
:1001A00010B5054C237833B9044B13B10448AFF3B1
:1001B00000800123237010BDD00200200000000049
:1001C00010E5000808B5034B1BB103490348AFF322
:1001D000008008BD00000000D402002010E50008E7
:1001E000034613F8012B002AFBD1181A0138704777
:1001F00001F0FF01102A2BDB10F0070F08D010F8D8
:10020000013B013A8B422DD010F0070F42B3F6D1DB
:10021000F0B441EA012141EA014122F007047FF0F4
:1002200000070023F0E80256083C85EA010586EA4B
:10023000010685FA47F5A3FA87F586FA47F6A5FA87
:1002400087F68EB9EED1F0BC01F0FF0102F0070293
:1002500032B110F8013B013A83EA010313B1F8D13E
:100260000020704701387047002D06BF354603381F
:10027000073815F0010F07D1013015F4807F02BF58
:10028000013015F4C03F0130F0BC0138704700BFA9
:1002900081F0004102E000BF83F0004330B54FEA37
:1002A00041044FEA430594EA050F08BF90EA020FA4
:1002B0001FBF54EA000C55EA020C7FEA645C7FEA37
:1002C000655C00F0E2804FEA5454D4EB5555B8BF5A
:1002D0006D420CDD2C4480EA020281EA030382EACB
:1002E000000083EA010180EA020281EA0303362D5D
:1002F00088BF30BD11F0004F4FEA01314FF4801C30
:100300004CEA113102D0404261EB410113F0004F41
:100310004FEA03334CEA133302D0524263EB4303F8
:1003200094EA050F00F0A780A4F10104D5F1200E96
:100330000DDB02FA0EFC22FA05F2801841F10001F1
:1003400003FA0EF2801843FA05F359410EE0A5F1C5
:1003500020050EF1200E012A03FA0EFC28BF4CF0F6
:10036000020C43FA05F3C01851EBE37101F00045AC
:1003700007D54FF0000EDCF1000C7EEB00006EEBB9
:100380000101B1F5801F1BD3B1F5001F0CD3490843
:100390005FEA30004FEA3C0C04F101044FEA44529A
:1003A00012F5800F80F09A80BCF1004F08BF5FEA21
:1003B000500C50F1000041EB045141EA050130BD01
:1003C0005FEA4C0C404141EB0101013C28BFB1F513
:1003D000801FE9D291F0000F04BF01460020B1FA5E
:1003E00081F308BF2033A3F10B03B3F120020CDA31
:1003F0000C3208DD02F1140CC2F10C0201FA0CF00F
:1004000021FA02F10CE002F11402D8BFC2F1200C73
:1004100001FA02F120FA0CFCDCBF41EA0C01904029
:10042000E41AA2BF01EB0451294330BD6FEA040472
:100430001F3C1CDA0C340EDC04F11404C4F120025D
:1004400020FA04F001FA02F340EA030021FA04F36F
:1004500045EA030130BDC4F10C04C4F1200220FAC6
:1004600002F001FA04F340EA0300294630BD21FA04
:1004700004F0294630BD94F0000F83F4801306BFCA
:1004800081F480110134013D4EE77FEA645C18BFBE
:100490007FEA655C29D094EA050F08BF90EA020F55
:1004A00005D054EA000C04BF1946104630BD91EA4D
:1004B000030F1EBF0021002030BD5FEA545C05D150
:1004C0004000494128BF41F0004130BD14F580048F
:1004D0003CBF01F5801130BD01F0004545F0FE4103
:1004E00041F470014FF0000030BD7FEA645C1ABF38
:1004F000194610467FEA655C1CBF0B46024650EA6F
:10050000013406BF52EA033591EA030F41F400219A
:1005100030BD00BF90F0000F04BF0021704730B520
:100520004FF4806404F132044FF000054FF00001F5
:1005300050E700BF90F0000F04BF0021704730B5B6
:100540004FF4806404F1320410F0004548BF40428B
:100550004FF000013EE700BF42004FEAE2014FEAE0
:1005600031014FEA02701FBF12F07F4393F07F4FBB
:1005700081F06051704732F07F4208BF704793F0BE
:100580007F4F04BF41F40021704730B54FF46074D1
:1005900001F0004521F000411CE700BF50EA0102D4
:1005A00008BF704730B54FF000050AE050EA01027D
:1005B00008BF704730B511F0004502D5404261EBED
:1005C00041014FF4806404F132045FEA915C3FF42E
:1005D000D8AE4FF003025FEADC0C18BF03325FEACB
:1005E000DC0C18BF033202EBDC02C2F1200300FA7C
:1005F00003FC20FA02F001FA03FE40EA0E0021FAA1
:1006000002F11444BDE600BF70B54FF0FF0C4CF48E
:10061000E06C1CEA11541DBF1CEA135594EA0C0F40
:1006200095EA0C0F00F0DEF82C4481EA030621EA7B
:100630004C5123EA4C5350EA013518BF52EA0335B6
:1006400041F4801143F4801338D0A0FB02CE4FF068
:100650000005E1FB02E506F00042E0FB03E54FF098
:100660000006E1FB03569CF0000F18BF4EF0010E90
:10067000A4F1FF04B6F5007F64F5407404D25FEA8C
:100680004E0E6D4146EB060642EAC62141EA55513F
:100690004FEAC52040EA5E504FEACE2EB4F1FD0C81
:1006A00088BFBCF5E06F1ED8BEF1004F08BF5FEAFF
:1006B000500E50F1000041EB045170BD06F00046B1
:1006C00046EA010140EA020081EA0301B4EB5C045E
:1006D000C2BFD4EB0C0541EA045170BD41F4801156
:1006E0004FF0000E013C00F3AB8014F1360FDEBF7B
:1006F000002001F0004170BDC4F10004203C35DA57
:100700000C341BDC04F11404C4F1200500FA05F3D9
:1007100020FA04F001FA05F240EA020001F000427A
:1007200021F0004110EBD37021FA04F642EB0601F0
:100730005EEA430E08BF20EAD37070BDC4F10C041A
:10074000C4F1200500FA04F320FA05F001FA04F2DE
:1007500040EA020001F0004110EBD37041F10001CA
:100760005EEA430E08BF20EAD37070BDC4F12005D5
:1007700000FA05F24EEA020E20FA04F301FA05F23D
:1007800043EA020321FA04F001F0004121FA04F2E5
:1007900020EA020000EBD3705EEA430E08BF20EAB5
:1007A000D37070BD94F0000F0FD101F000464000EF
:1007B00041EB010111F4801F08BF013CF7D041EA71
:1007C000060195F0000F18BF704703F00046520075
:1007D00043EB030313F4801F08BF013DF7D043EA46
:1007E0000603704794EA0C0F0CEA135518BF95EAFC
:1007F0000C0F0CD050EA410618BF52EA4306D1D183
:1008000081EA030101F000414FF0000070BD50EAA1
:10081000410606BF1046194652EA430619D094EA2B
:100820000C0F02D150EA013613D195EA0C0F05D115
:1008300052EA03361CBF104619460AD181EA030169
:1008400001F0004141F0FE4141F470014FF0000021
:1008500070BD41F0FE4141F4780170BD70B54FF0BC
:10086000FF0C4CF4E06C1CEA11541DBF1CEA13553C
:1008700094EA0C0F95EA0C0F00F0A7F8A4EB05041E
:1008800081EA030E52EA03354FEA013100F0888015
:100890004FEA03334FF0805545EA131343EA1263DE
:1008A0004FEA022245EA111545EA10654FEA002693
:1008B0000EF000419D4208BF964244F1FD0404F54C
:1008C000407402D25B084FEA3202B61A65EB0305A8
:1008D0005B084FEA32024FF480104FF4002CB6EB65
:1008E000020E75EB030E22BFB61A754640EA0C00E5
:1008F0005B084FEA3202B6EB020E75EB030E22BF25
:10090000B61A754640EA5C005B084FEA3202B6EB65
:10091000020E75EB030E22BFB61A754640EA9C0024
:100920005B084FEA3202B6EB020E75EB030E22BFF4
:10093000B61A754640EADC0055EA060E18D04FEAB2
:10094000051545EA16754FEA06164FEAC30343EA52
:1009500052734FEAC2025FEA1C1CC0D111F4801F1F
:100960000BD141EA00014FF000004FF0004CB6E718
:1009700011F4801F04BF01430020B4F1FD0C88BFB7
:10098000BCF5E06F3FF6AFAEB5EB030C04BFB6EBC2
:10099000020C5FEA500C50F1000041EB045170BDB5
:1009A0000EF0004E4EEA113114EB5C04C2BFD4EBE2
:1009B0000C0541EA045170BD41F480114FF0000E66
:1009C000013C90E645EA060E8DE60CEA135594EAE2
:1009D0000C0F08BF95EA0C0F3FF43BAF94EA0C0FE5
:1009E0000AD150EA01347FF434AF95EA0C0F7FF45A
:1009F00025AF104619462CE795EA0C0F06D152EAAE
:100A000003353FF4FDAE1046194622E750EA410691
:100A100018BF52EA43067FF4C5AE50EA41047FF4A2
:100A20000DAF52EA43057FF4EBAE12E74FF0FF3C07
:100A300006E000BF4FF0010C02E000BF4FF0010CD8
:100A40004DF804CD4FEA410C7FEA6C5C4FEA430C51
:100A500018BF7FEA6C5C1BD001B050EA410C0CBFA0
:100A600052EA430C91EA030F02BF90EA020F002002
:100A7000704710F1000F91EA030F58BF994208BF69
:100A800090422CBFD8176FEAE37040F00100704726
:100A90004FEA410C7FEA6C5C02D150EA013C07D17D
:100AA0004FEA430C7FEA6C5CD6D152EA033CD3D0C8
:100AB0005DF8040B704700BF8446104662468C46C2
:100AC0001946634600E000BF01B5FFF7B7FF0028F5
:100AD00048BF10F1000F01BD4DF808EDFFF7F4FF1E
:100AE0000CBF012000205DF808FB00BF4DF808EDA9
:100AF000FFF7EAFF34BF012000205DF808FB00BFCC
:100B00004DF808EDFFF7E0FF94BF012000205DF8ED
:100B100008FB00BF4DF808EDFFF7CEFF94BF0120A2
:100B200000205DF808FB00BF4DF808EDFFF7C4FF9B
:100B300034BF012000205DF808FB00BF4FEA410CE4
:100B40007FEA6C5C02D150EA013C0AD14FEA430CC7
:100B50007FEA6C5C02D152EA033C02D14FF0000004
:100B600070474FF0010070474FEA410212F5001242
:100B700015D211D56FF47873B3EB625212D94FEAE4
:100B8000C12343F0004343EA505311F0004F23FACE
:100B900002F018BF404270474FF00000704750EA23
:100BA000013005D111F0004008BF6FF000407047E0
:100BB0004FF00000704700BF4A0011D212F500123A
:100BC00011D20DD56FF47873B3EB62520ED44FEAA5
:100BD000C12343F0004343EA505323FA02F0704725
:100BE0004FF00000704750EA013002D14FF0FF3063
:100BF00070474FF0000070474FEA4102B2F1E04306
:100C000024BFB3F5001CDCF1FE5C0DD901F0004CF3
:100C10004FEAC0024CEA5070B2F1004F40EB830043
:100C200008BF20F00100704711F0804F21D113F16F
:100C30003872BCBF01F00040704741F480114FEAA8
:100C40005252C2F11802C2F1200C10FA0CF320FA31
:100C500002F018BF40F001004FEAC1234FEAD3234E
:100C600003FA0CFC40EA0C0023FA02F34FEA4303B8
:100C7000CCE77FEA625307D150EA01331EBF4FF041
:100C8000FE4040F44000704701F0004040F0FE405C
:100C900040F40000704700BF53B94AB9002908BFAB
:100CA00000281CBF4FF0FF314FF0FF3000F0AAB911
:100CB000ADF1080C6DE904CE00F03CF8DDF804E07D
:100CC000DDE9022304B0704738B500220023044652
:100CD0000D46FFF70BFF28B920462946BDE83840EE
:100CE00000F00AB8204605F1004100F005F8404246
:100CF00061EB410138BD00BFD0B50C4B0022064668
:100D00000F46FFF781FCFFF757FF0446FFF702FC91
:100D1000074B0022FFF778FC02460B463046394667
:100D2000FFF7BAFAFFF748FF2146D0BD0000F03DBB
:100D30000000F0412DE9F047089D04468E46002B47
:100D40004DD18A42944669D9B2FA82F252B101FA7F
:100D500002F3C2F1200120FA01F10CFA02FC41EA8F
:100D6000030E94404FEA1C48210CBEFBF8F61FFA14
:100D70008CF708FB16E341EA034306FB07F19942AF
:100D80000AD91CEB030306F1FF3080F01F81994262
:100D900040F21C81023E63445B1AA4B2B3FBF8F03C
:100DA00008FB103344EA034400FB07F7A7420AD9C3
:100DB0001CEB040400F1FF3380F00A81A74240F2EB
:100DC00007816444023840EA0640E41B00261DB156
:100DD000D4400023C5E900433146BDE8F0878B428B
:100DE00009D9002D00F0EF800026C5E9000130464A
:100DF0003146BDE8F087B3FA83F6002E4AD18B4224
:100E000002D3824200F2F980841A61EB03030120CD
:100E10009E46002DE0D0C5E9004EDDE702B9FFDEB9
:100E2000B2FA82F2002A40F09280A1EB0C014FEA64
:100E30001C471FFA8CFE0126200CB1FBF7F307FBC1
:100E4000131140EA01410EFB03F0884208D91CEB64
:100E5000010103F1FF3802D2884200F2CB80434601
:100E6000091AA4B2B1FBF7F007FB101144EA0144E0
:100E70000EFB00FEA64508D91CEB040400F1FF316F
:100E800002D2A64500F2BB800846A4EB0E0440EA5D
:100E900003409CE7C6F12007B34022FA07FC4CEA66
:100EA000030C20FA07F401FA06F31C43F9404FEA59
:100EB0001C4900FA06F3B1FBF9F8200C1FFA8CFE6E
:100EC00009FB181140EA014108FB0EF0884202FAC2
:100ED00006F20BD91CEB010108F1FF3A80F0888083
:100EE000884240F28580A8F102086144091AA4B240
:100EF000B1FBF9F009FB101144EA014100FB0EFEC1
:100F00008E4508D91CEB010100F1FF346CD28E45EF
:100F10006AD90238614440EA0840A0FB0294A1EB80
:100F20000E01A142C846A64656D353D05DB1B3EBDD
:100F3000080261EB0E0101FA07F722FA06F3F1400D
:100F40001F43C5E9007100263146BDE8F087C2F1B4
:100F50002003D8400CFA02FC21FA03F3914001432C
:100F60004FEA1C471FFA8CFEB3FBF7F007FB103665
:100F70000B0C43EA064300FB0EF69E4204FA02F411
:100F800008D91CEB030300F1FF382FD29E422DD964
:100F9000023863449B1B89B2B3FBF7F607FB163399
:100FA00041EA034106FB0EF38B4208D91CEB010119
:100FB00006F1FF3816D28B4214D9023E6144C91A99
:100FC00046EA004638E72E46284605E70646E3E6A9
:100FD0001846F8E64B45A9D2B9EB020864EB0C0EB3
:100FE0000138A3E74646EAE7204694E74046D1E7C2
:100FF000D0467BE7023B614432E7304609E7644470
:10100000023842E7704700BF80B586B000AF0823C2
:101010007B600123BB600023FB6002233B613B1D1F
:101020001946104801F0C8FC03237B600123BB6014
:101030000023FB6002233B613B1D19460A4801F077
:10104000BBFC06237B600123BB600023FB60022303
:101050003B613B1D1946054801F0AEFC00BF183747
:10106000BD4680BD0000024000040240000802406E
:1010700080B586B000AFFFF7C7FF002208211C48EB
:1010800001F01EFE012202211A4801F019FE002281
:101090000421184801F014FE01220121164801F034
:1010A0000FFE00220221144801F00AFE012000F088
:1010B0008FFF02237B600323BB600023FB600223BE
:1010C0003B613B1D19460B4801F076FC01237B6018
:1010D0000323BB600023FB6002233B613B1D1946D9
:1010E000054801F069FC00BF1837BD4680BD00BF50
:1010F00000000240000802400004024080B586B0B3
:1011000000AFFFF781FF002208211C4801F0D8FD45
:10111000002202211A4801F0D3FD012204211848BF
:1011200001F0CEFD00220121164801F0C9FD012287
:101130000221144801F0C4FD012000F049FF0423FE
:101140007B600323BB600023FB6002233B613B1DEC
:1011500019460B4801F030FC02237B600323BB607F
:101160000023FB6002233B613B1D1946054801F04B
:1011700023FC00BF1837BD4680BD00BF0000024001
:101180000008024000040240F0B58BB00AAF00F046
:10119000ADFE00F02DF900F093F900F0C7FA00F071
:1011A00039FA00F065FA00F091FA00F0A9F907F0B9
:1011B000EDFF894B4AF6AB221A80874B00225A80FA
:1011C000FFF756FF854800F06BFF4FF47A718348B4
:1011D00001F01AF8814801F0A2F84FF47A717F48C3
:1011E00001F012F87D4801F09AF803461AB27A4BE2
:1011F0005A804FF47A71794801F006F8774801F087
:101200008EF84FF47A71754800F0FEFF734801F0D4
:1012100086F803461AB2704B1A80FFF76FFF6F48CB
:1012200000F03EFF4FF47A716C4800F0EDFF6B4820
:1012300001F075F84FF47A71684800F0E5FF6748EF
:1012400001F06DF84FF47A71644800F0DDFF6348F7
:1012500001F065F803461AB25F4B9A804FF47A7139
:101260005E4800F0D1FF5D4801F059F84FF47A7103
:101270005A4800F0C9FF594801F051F803461AB224
:10128000554BDA80564B00221A70554B00225A708B
:10129000534B00229A70524B0022DA704E4BB3F936
:1012A000003040F64262934209DD4D4B0122DA7074
:1012B00001224FF400414B4801F002FD05E00022FD
:1012C0004FF40041474801F0FBFC434BB3F90230B7
:1012D000B3F5616F09DD424B01221A7001224FF410
:1012E0008051404801F0ECFC05E000224FF48051B1
:1012F0003C4801F0E5FC384BB3F9043040F642625B
:10130000934209DD364B01225A7001224FF40051FD
:10131000344801F0D5FC05E000224FF4005131487B
:1013200001F0CEFC2C4BB3F90630B3F5616F09DD4B
:101330002B4B01229A7001224FF48041294801F081
:10134000BFFC05E000224FF48041264801F0B8FCC4
:10135000234B93F900309C461F4BB3F902301A46D9
:101360001F4B93F9013019461B4BB3F90430184653
:101370001B4B93F902301C46174BB3F906301D4640
:10138000174B93F903301E46134BB3F90030099302
:1013900040F642630893079606954FF46163059300
:1013A0000494039040F642630293019100924FF43B
:1013B000616362460C490D4809F0B8FA0B48FEF724
:1013C0000FFF03469BB21946084807F09DFF6420B3
:1013D00000F0FEFDF4E600BF18040020EC0200203F
:1013E00040040020000C024028E5000844040020CE
:1013F00080B594B000AF07F12003302200211846D9
:1014000008F00CFC07F10C0300221A605A609A6085
:10141000DA601A610023BB60274B1B6C264A43F03D
:1014200080531364244B1B6C03F08053BB60BB6878
:1014300000237B60214B1B68204A43F44043136028
:101440001E4B1B6803F440437B607B6801233B62B7
:101450004FF480337B620223BB634FF48003FB6352
:1014600004233B64C0237B640423BB640823FB6424
:1014700007F12003184603F09FFC0346002B01D020
:1014800000F03EFA0F23FB6002233B6100237B61E7
:101490004FF4A053BB610023FB6107F10C03032150
:1014A000184603F001FF0346002B01D000F028FA94
:1014B00000BF5037BD4680BD00380240007000407C
:1014C00080B586B000AF3B4600221A605A609A6031
:1014D000DA601A615A6101233B60C823BB600523AF
:1014E0007B600223FB603B46184604F0E9F80346A4
:1014F000002B01D000F004FA00BF1837BD4680BDB4
:1015000080B584B000AF3B4600221A605A609A60F2
:10151000DA603D4B3D4A1A603B4B4FF400325A6053
:10152000394B00229A60384B01221A61364B002257
:101530001A76354B002283F82020334B0022DA62E2
:10154000314B334A9A62304B0022DA602E4B05222F
:10155000DA612D4B002283F830202B4B01225A6197
:10156000294800F059FD0346002B01D000F0C8F9CE
:1015700003233B6001237B600623BB603B46194687
:10158000214800F0D9FE0346002B01D000F0B8F945
:1015900008233B6002237B603B4619461A4800F053
:1015A000CBFE0346002B01D000F0AAF909233B60D3
:1015B00003237B603B461946134800F0BDFE0346FB
:1015C000002B01D000F09CF90B233B6004237B60CF
:1015D0003B4619460C4800F0AFFE0346002B01D0F5
:1015E00000F08EF90C233B6005237B603B461946D7
:1015F000054800F0A1FE0346002B01D000F080F961
:1016000000BF1037BD4680BDEC0200200020014025
:101610000100000F80B500AF124B134A1A60114B46
:10162000124A5A600F4B00229A600E4B0022DA6079
:101630000C4B4FF480421A610A4B00225A61094B4D
:1016400000229A61074B0022DA61064B00221A62DF
:10165000044801F04FFB0346002B01D000F050F985
:1016600000BF80BD3403002000540040A08601006C
:1016700080B500AF124B134A1A60114B4FF4007241
:101680005A600F4B00229A600D4B0022DA600C4B1F
:1016900000221A610A4B0C4A5A61094B00229A61D6
:1016A000074B0022DA61064B01221A62044801F05E
:1016B00065FC0346002B01D000F022F900BF80BD7D
:1016C00088030020003800400077010080B500AF9B
:1016D000134B144A1A60124B4FF400725A60104BAD
:1016E00000229A600E4B0022DA600D4B4FF400721C
:1016F0001A610B4B0C4A5A61094B00229A61084B44
:101700000022DA61064B00221A62054801F036FC1D
:101710000346002B01D000F0F3F800BF80BD00BFEE
:10172000D0030020003C00400077010080B58CB061
:1017300000AF07F11C0300221A605A609A60DA6059
:101740001A610023BB61694B1B6B684A43F01003AD
:101750001363664B1B6B03F01003BB61BB69002373
:101760007B61624B1B6B614A43F0040313635F4B65
:101770001B6B03F004037B617B6900233B615B4BC4
:101780001B6B5A4A43F080031363584B1B6B03F0E7
:1017900080033B613B690023FB60544B1B6B534A46
:1017A00043F001031363514B1B6B03F00103FB6018
:1017B000FB680023BB604D4B1B6B4C4A43F002039C
:1017C00013634A4B1B6B03F00203BB60BB6800232F
:1017D0007B60464B1B6B454A43F008031363434B46
:1017E0001B6B03F008037B607B68002208214048E4
:1017F00001F066FA012201213E4801F061FA00225F
:101800004FF210013C4801F05BFA0423FB61002316
:101810003B6200237B6207F11C031946344801F048
:10182000CBF80823FB6101233B6200237B6200238A
:10183000BB6207F11C0319462D4801F0BDF83223A5
:10184000FB614FF490133B6200237B6207F11C03A2
:101850001946274801F0B0F80123FB6101233B62E0
:1018600000237B620023BB6207F11C031946214859
:1018700001F0A2F80123FB614FF490133B620023B7
:101880007B6207F11C0319461C4801F095F86023A0
:10189000FB6102233B6200237B620323BB620523BF
:1018A000FB6207F11C031946144801F085F84FF25A
:1018B0001003FB6101233B6200237B620023BB62B8
:1018C00007F11C0319460C4801F076F82023FB6150
:1018D00000233B6200237B6207F11C031946064884
:1018E00001F06AF800BF3037BD4680BD00380240C5
:1018F0000010024000080240000C024000000240BC
:1019000080B400AF72B600BFFEE7000080B582B0C1
:1019100000AF00237B60104B5B6C0F4A43F48043A5
:1019200053640D4B5B6C03F480437B607B68002346
:101930003B60094B1B6C084A43F080531364064B11
:101940001B6C03F080533B603B68072000F0F2FF04
:1019500000BF0837BD4680BD0038024080B58CB05E
:1019600000AF786007F11C0300221A605A609A6089
:10197000DA601A617B681B68314A93425BD10023AD
:10198000BB61304B5B6C2F4A43F4807353642D4B27
:101990005B6C03F48073BB61BB6900237B61294BE3
:1019A0001B6B284A43F004031363264B1B6B03F0A5
:1019B00004037B617B6900233B61224B1B6B214A43
:1019C00043F0010313631F4B1B6B03F001033B61E7
:1019D0003B690023FB601B4B1B6B1A4A43F002035D
:1019E0001363184B1B6B03F00203FB60FB680623B9
:1019F000FB6103233B6200237B6207F11C03194652
:101A0000114800F0D9FF8823FB6103233B620023C8
:101A10007B6207F11C0319460C4800F0CDFF03233D
:101A2000FB6103233B6200237B6207F11C03194621
:101A3000074800F0C1FF00BF3037BD4680BD00BF82
:101A4000002001400038024000080240000002402F
:101A50000004024080B58AB000AF786007F114033B
:101A600000221A605A609A60DA601A617B681B680B
:101A7000194A93422CD100233B61184B1B6B174A28
:101A800043F002031363154B1B6B03F002033B612E
:101A90003B694FF410737B611223BB610123FB612F
:101AA00000233B6204237B6207F1140319460C48B0
:101AB00000F082FF0023FB60084B1B6C074A43F4D5
:101AC00000131364054B1B6C03F40013FB60FB68ED
:101AD00000BF2837BD4680BD00540040003802409A
:101AE0000004024080B58EB000AF786007F1240397
:101AF00000221A605A609A60DA601A617B681B687B
:101B0000594A93425CD100233B62584B1B6C574AA5
:101B100043F480431364554B1B6C03F480433B62D6
:101B20003B6A0023FB61514B1B6B504A43F004039B
:101B300013634E4B1B6B03F00403FB61FB69002333
:101B4000BB614A4B1B6B494A43F002031363474B8B
:101B50001B6B03F00203BB61BB6908237B6202239A
:101B6000BB620023FB6200233B6305237B6307F119
:101B7000240319463E4800F01FFF4FF4A0537B6238
:101B80000223BB620023FB6200233B6305237B63CC
:101B900007F124031946374800F00EFF4FF4804345
:101BA0007B620223BB620023FB6200233B630623AC
:101BB0007B6307F1240319462E4800F0FDFE4FE039
:101BC0007B681B682C4A93424AD100237B61274BD8
:101BD0001B6C264A43F400431364244B1B6C03F430
:101BE00000437B617B6900233B61204B1B6B1F4AD9
:101BF00043F0010313631D4B1B6B03F001033B61B7
:101C00003B690023FB60194B1B6B184A43F004032C
:101C10001363164B1B6B03F00403FB60FB6810237C
:101C20007B620223BB620023FB6200233B6306232B
:101C30007B6307F124031946104800F0BDFE4FF402
:101C4000A4537B620223BB620023FB6200233B633D
:101C500006237B6307F124031946054800F0ACFE18
:101C600000BF3837BD4680BD003800400038024014
:101C70000008024000040240003C00400000024016
:101C800080B400AFFEE780B400AFFEE780B400AFE1
:101C9000FEE780B400AFFEE780B400AFFEE780B49B
:101CA00000AF00BFBD465DF8047B704780B400AF55
:101CB00000BFBD465DF8047B704780B400AF00BF35
:101CC000BD465DF8047B704780B500AF00F060F959
:101CD00000BF80BD80B500AF024801F03FFF00BFEC
:101CE00080BD00BF6019002080B400AF01231846FA
:101CF000BD465DF8047B704780B582B000AF786068
:101D0000396007F061FF034616221A604FF0FF3377
:101D100018460837BD4680BD80B582B000AF7860F8
:101D20004FF0FF317868FFF7E7FFFEE780B586B038
:101D300000AFF860B9607A6000237B610AE0AFF31E
:101D400000800146BB685A1CBA60CAB21A707B692F
:101D500001337B617A697B689A42F0DB7B681846C5
:101D60001837BD4680BD80B586B000AFF860B96059
:101D70007A6000237B6109E0BB685A1CBA601B785B
:101D80001846AFF300807B6901337B617A697B6819
:101D90009A42F1DB7B6818461837BD4680BD80B497
:101DA00083B000AF78604FF0FF3318460C37BD4664
:101DB0005DF8047B704780B483B000AF7860396011
:101DC0003B684FF400525A60002318460C37BD465A
:101DD0005DF8047B704780B483B000AF7860012366
:101DE00018460C37BD465DF8047B704780B485B05B
:101DF00000AFF860B9607A60002318461437BD461A
:101E00005DF8047B7047000080B586B000AF786055
:101E1000144A154BD31A7B617B693B61134B1B68DA
:101E2000002B02D1114B124A1A60104B1A687B68C2
:101E300013443A699A4207D207F0C6FE03460C22C1
:101E40001A604FF0FF3309E0084B1B68FB60074B3B
:101E50001A687B681344054A1360FB6818461837F4
:101E6000BD4680BD00000220000400007804002070
:101E7000A020002080B400AF064BD3F88830054A7C
:101E800043F47003C2F8883000BFBD465DF8047BA0
:101E9000704700BF00ED00E0DFF834D00D480E4978
:101EA0000E4A002302E0D458C4500433C4188C42B4
:101EB000F9D30B4A0B4C002301E013600432A24219
:101EC000FBD3FFF7D7FF07F085FEFFF75DF97047FB
:101ED0000000022000000020D002002084EA000858
:101EE000D00200209C200020FEE7000080B500AF5B
:101EF0000E4B1B680D4A43F4007313600B4B1B68B9
:101F00000A4A43F480631360084B1B68074A43F492
:101F100080731360032000F00DFD002000F008F82E
:101F2000FFF7F4FC0023184680BD00BF003C0240D0
:101F300080B582B000AF7860124B1A68124B1B78E4
:101F400019464FF47A73B3FBF1F3B2FBF3F318467F
:101F500000F025FD0346002B01D001230EE07B6835
:101F60000F2B0AD8002279684FF0FF3000F0EDFC0B
:101F7000064A7B681360002300E0012318460837F7
:101F8000BD4680BD000000200800002004000020A5
:101F900080B400AF064B1B781A46064B1B681344EF
:101FA000044A136000BFBD465DF8047B704700BF64
:101FB000080000207C04002080B400AF034B1B68A5
:101FC0001846BD465DF8047B704700BF7C040020C6
:101FD00080B584B000AF7860FFF7EEFFB8607B6833
:101FE000FB60FB68B3F1FF3F05D00A4B1B781A4634
:101FF000FB681344FB6000BFFFF7DEFF0246BB68CF
:10200000D31AFA689A42F7D800BF00BF1037BD460E
:1020100080BD00BF0800002080B584B000AF7860AC
:102020000023FB737B68002B01D1012333E07B6825
:102030001B6C002B09D17868FFF790FC7B680022AD
:102040005A647B68002283F83C207B681B6C03F099
:102050001003002B18D17B681B6C23F4885323F0EA
:10206000020343F002027B681A64786800F096FA73
:102070007B6800225A647B681B6C23F0030343F0E7
:1020800001027B681A6401E00123FB737B68002274
:1020900083F83C20FB7B18461037BD4680BD00000E
:1020A00080B485B000AF78600023BB607B6893F894
:1020B0003C30012B01D1022397E07B68012283F899
:1020C0003C207B681B689B6803F00103012B18D040
:1020D0007B681B689A687B681B6842F001029A6003
:1020E000454B1B68454AA2FB03239A0C13465B0031
:1020F0001344BB6002E0BB68013BBB60BB68002BC4
:10210000F9D17B681B689B6803F00103012B5FD149
:102110007B681B6C23F4E06323F0010343F48072BB
:102120007B681A647B681B685B6803F48063002B20
:1021300007D07B681B6C23F4405343F480527B68C8
:102140001A647B681B6C03F48053B3F5805F06D17F
:102150007B685B6C23F006027B685A6402E07B6854
:1021600000225A647B68002283F83C20244BFB60E9
:102170007B681B686FF022021A60FB685B6803F0E3
:102180001F03002B0FD17B681B689B6803F0405333
:10219000002B29D17B681B689A687B681B6842F01A
:1021A00080429A6020E07B681B68164A93421BD1EC
:1021B0007B681B689B6803F04053002B14D17B683D
:1021C0001B689A687B681B6842F080429A600BE04B
:1021D0007B681B6C43F010027B681A647B685B6C45
:1021E00043F001027B685A64002318461437BD4649
:1021F0005DF8047B704700BF0000002083DE1B43B6
:10220000002301400020014080B584B000AF786019
:1022100039600023FB607B681B689B6803F4806364
:10222000B3F5806F13D17B681B689B6803F48073E0
:10223000B3F5807F0BD17B681B6C43F020027B6879
:102240001A647B68002283F83C20012363E0FFF7D7
:10225000B3FEF86021E03B68B3F1FF3F1DD03B685F
:10226000002B07D0FFF7A8FE0246FB68D31A3A6896
:102270009A4212D27B681B681B6803F00203022B90
:102280000BD07B681B6C43F004027B681A647B688C
:10229000002283F83C2003233DE07B681B681B6819
:1022A00003F00203022BD6D17B681B686FF0120289
:1022B0001A607B681B6C43F400727B681A647B684D
:1022C0001B689B6803F04053002B23D17B681B7E67
:1022D000002B1FD17B681B68DB6A03F47003002BA3
:1022E00006D07B681B689B6803F48063002B11D1C8
:1022F0007B681B6C23F480727B681A647B681B6CA0
:1023000003F48053002B05D17B681B6C43F0010262
:102310007B681A64002318461037BD4680BD80B420
:1023200083B000AF78607B681B68DB6C18460C37A5
:10233000BD465DF8047B704780B485B000AF78601F
:1023400039600023BB607B6893F83C30012B01D1DE
:10235000022313E17B68012283F83C203B681B6861
:10236000092B25D97B681B68D9683B681B689BB221
:102370001A4613465B0013441E3B072202FA03F37E
:10238000DA437B681B680A40DA607B681B68D9689F
:102390003B689A683B681B689BB2184603465B0023
:1023A00003441E3B9A407B681B680A43DA6022E0C4
:1023B0007B681B6819693B681B689BB21A46134609
:1023C0005B001344072202FA03F3DA437B681B68BD
:1023D0000A401A617B681B6819693B689A683B6808
:1023E0001B689BB2184603465B0003449A407B6817
:1023F0001B680A431A613B685B68062B24D87B681C
:102400001B68596B3B685A6813469B001344053B95
:102410001F2202FA03F3DA437B681B680A405A63FF
:102420007B681B68596B3B681B689BB218463B680E
:102430005A6813469B001344053B00FA03F27B687D
:102440001B680A435A634CE03B685B680C2B24D83A
:102450007B681B68196B3B685A6813469B001344E2
:10246000233B1F2202FA03F3DA437B681B680A400E
:102470001A637B681B68196B3B681B689BB2184624
:102480003B685A6813469B001344233B00FA03F24F
:102490007B681B680A431A6323E07B681B68D96A60
:1024A0003B685A6813469B001344413B1F2202FAC3
:1024B00003F3DA437B681B680A40DA627B681B68B7
:1024C000D96A3B681B689BB218463B685A6813463A
:1024D0009B001344413B00FA03F27B681B680A43EC
:1024E000DA62294BFB607B681B68284A93420FD154
:1024F0003B681B68122B0BD1FB685B6823F400025E
:10250000FB685A60FB685B6843F48002FB685A60B2
:102510007B681B681D4A93422BD13B681B681C4A91
:10252000934203D03B681B68112B22D1FB685B6888
:1025300023F48002FB685A60FB685B6843F4000286
:10254000FB685A603B681B68114A934211D1114BDA
:102550001B68114AA2FB03239A0C13469B001344E9
:102560005B00BB6002E0BB68013BBB60BB68002B4B
:10257000F9D17B68002283F83C20002318461437E9
:10258000BD465DF8047B70470023014000200140F8
:10259000120000100000002083DE1B4380B485B0D1
:1025A00000AF7860794BFB60FB685B6823F44032D6
:1025B000FB685A60FB685A687B685B681A43FB6873
:1025C0005A607B681B685A687B681B6822F48072BB
:1025D0005A607B681B6859687B681B691A027B68B4
:1025E0001B680A435A607B681B685A687B681B68D3
:1025F00022F040725A607B681B6859687B689A6851
:102600007B681B680A435A607B681B689A687B6812
:102610001B6822F400629A607B681B6899687B687B
:10262000DA687B681B680A439A607B689B6A584A31
:10263000934222D07B681B689A687B681B6822F0F3
:1026400070629A607B681B6899687B689A6A7B688D
:102650001B680A439A607B681B689A687B681B68E2
:1026600022F040529A607B681B6899687B68DA6A3E
:102670007B681B680A439A600FE07B681B689A6856
:102680007B681B6822F070629A607B681B689A689E
:102690007B681B6822F040529A607B681B689A68CE
:1026A0007B681B6822F002029A607B681B6899684D
:1026B0007B681B7E5A007B681B680A439A607B68B4
:1026C00093F82030002B1BD07B681B685A687B680E
:1026D0001B6842F400625A607B681B685A687B681A
:1026E0001B6822F460425A607B681B6859687B68EB
:1026F0005B6A013B5A037B681B680A435A6007E028
:102700007B681B685A687B681B6822F400625A6009
:102710007B681B68DA6A7B681B6822F47002DA62E5
:102720007B681B68D96A7B68DB69013B1A057B689B
:102730001B680A43DA627B681B689A687B681B68BF
:1027400022F400729A607B681B6899687B6893F832
:1027500030305A027B681B680A439A607B681B68AA
:102760009A687B681B6822F480629A607B681B68A9
:1027700099687B685B699A027B681B680A439A6068
:1027800000BF1437BD465DF8047B7047002301404D
:102790000100000F80B485B000AF78607B6803F063
:1027A0000703FB600C4BDB68BB60BA684FF6FF03A6
:1027B0001340BB60FB681A02BB68134343F0BF635E
:1027C00043F40033BB60044ABB68D36000BF1437D6
:1027D000BD465DF8047B704700ED00E080B400AFBB
:1027E000044BDB681B0A03F007031846BD465DF87F
:1027F000047B704700ED00E080B483B000AF034677
:10280000FB7197F90730002B0BDBFB7903F01F02FC
:10281000074997F907305B09012000FA02F241F8F5
:10282000232000BF0C37BD465DF8047B704700BF16
:1028300000E100E080B483B000AF03463960FB7173
:1028400097F90730002B0ADB3B68DAB20C4997F99D
:1028500007301201D2B20B4483F800230AE03B6830
:10286000DAB20849FB7903F00F03043B1201D2B23C
:102870000B441A7600BF0C37BD465DF8047B7047E9
:1028800000E100E000ED00E080B489B000AFF86046
:10289000B9607A60FB6803F00703FB61FB69C3F171
:1028A0000703042B28BF0423BB61FB690433062BF9
:1028B00002D9FB69033B00E000237B614FF0FF324C
:1028C000BB6902FA03F3DA43BB681A407B699A409A
:1028D0004FF0FF317B6901FA03F3D9437B680B406A
:1028E000134318462437BD465DF8047B704700004B
:1028F00080B582B000AF78607B68013BB3F1807F28
:1029000001D301230FE00A4A7B68013B53600F218A
:102910004FF0FF30FFF78EFF054B00229A60044B0B
:1029200007221A60002318460837BD4680BD00BF45
:1029300010E000E080B582B000AF78607868FFF703
:1029400029FF00BF0837BD4680BD80B586B000AF07
:102950000346B9607A60FB7300237B61FFF73EFF9B
:1029600078617A68B9687869FFF78EFF024697F94F
:102970000F3011461846FFF75DFF00BF1837BD4600
:1029800080BD80B582B000AF0346FB7197F9073078
:102990001846FFF731FF00BF0837BD4680BD80B540
:1029A00082B000AF78607868FFF7A2FF0346184650
:1029B0000837BD4680BD000080B489B000AF7860A4
:1029C000396000237B6100233B610023BB6100234E
:1029D000FB6159E10122FB6902FA03F37B613B6869
:1029E0001B687A6913403B613A697B699A4240F0FF
:1029F00048813B685B6803F00303012B05D03B680B
:102A00005B6803F00303022B30D17B689B68BB61DA
:102A1000FB695B00032202FA03F3DB43BA6913404C
:102A2000BB613B68DA68FB695B0002FA03F3BA69D1
:102A30001343BB617B68BA699A607B685B68BB6162
:102A40000122FB6902FA03F3DB43BA691340BB615D
:102A50003B685B681B0903F00102FB6902FA03F3A0
:102A6000BA691343BB617B68BA695A603B685B68AB
:102A700003F00303032B17D07B68DB68BB61FB69A2
:102A80005B00032202FA03F3DB43BA691340BB6124
:102A90003B689A68FB695B0002FA03F3BA69134367
:102AA000BB617B68BA69DA603B685B6803F003036B
:102AB000022B23D1FB69DA087B68083253F82230F5
:102AC000BB61FB6903F007039B000F2202FA03F3CB
:102AD000DB43BA691340BB613B681A69FB6903F0C9
:102AE00007039B0002FA03F3BA691343BB61FB6956
:102AF000DA087B680832B96943F822107B681B68E2
:102B0000BB61FB695B00032202FA03F3DB43BA6992
:102B10001340BB613B685B6803F00302FB695B0029
:102B200002FA03F3BA691343BB617B68BA691A609E
:102B30003B685B6803F44033002B00F0A280002365
:102B4000FB60574B5B6C564A43F480435364544BD1
:102B50005B6C03F48043FB60FB68524AFB699B0893
:102B6000023352F82330BB61FB6903F003039B007F
:102B70000F2202FA03F3DB43BA691340BB617B689F
:102B8000494A934219D07B68484A934213D07B68E4
:102B9000474A93420DD07B68464A934207D07B68F0
:102BA000454A934201D1042308E0072306E00323AA
:102BB00004E0022302E0012300E00023FA6902F0AE
:102BC000030292009340BA691343BB613549FB6924
:102BD0009B080233BA6941F82320384B9B68BB61DC
:102BE0003B69DB43BA691340BB613B685B6803F434
:102BF0008013002B03D0BA693B691343BB612F4A92
:102C0000BB6993602D4BDB68BB613B69DB43BA69F1
:102C10001340BB613B685B6803F40013002B03D0D7
:102C2000BA693B691343BB61244ABB69D360234B38
:102C30005B68BB613B69DB43BA691340BB613B68BE
:102C40005B6803F40033002B03D0BA693B6913437C
:102C5000BB611A4ABB695360184B1B68BB613B6977
:102C6000DB43BA691340BB613B685B6803F48033A4
:102C7000002B03D0BA693B691343BB610F4ABB69A0
:102C80001360FB690133FB61FB690F2B7FF6A2AE7A
:102C900000BF00BF2437BD465DF8047B704700BF0E
:102CA00000380240003801400000024000040240A9
:102CB00000080240000C024000100240003C0140AD
:102CC00080B483B000AF78600B467B8013467B7086
:102CD0007B78002B03D07A887B689A6103E07B883D
:102CE0001A047B689A6100BF0C37BD465DF8047B0F
:102CF0007047000080B584B000AF78607B68002B1F
:102D000001D101232BE17B6893F83D30DBB2002B2E
:102D100006D17B68002283F83C207868FEF79AFE93
:102D20007B68242283F83D207B681B681A687B68D7
:102D30001B6822F001021A607B681B681A687B68B6
:102D40001B6842F400421A607B681B681A687B6843
:102D50001B6822F400421A6002F09EFCF8607B6857
:102D60005B68814A934207D8FB68804A934294BFCC
:102D700001230023DBB206E0FB687D4A934294BF47
:102D800001230023DBB2002B01D00123E7E0FB6825
:102D9000784AA2FB03239B0CBB607B681B685B68C3
:102DA00023F03F017B681B68BA680A435A607B685E
:102DB0001B681B6A23F03F017B685B686A4A934289
:102DC00002D8BB68013309E0BB684FF4967202FB7E
:102DD00003F3694AA2FB03239B0901337A68126853
:102DE0000B4313627B681B68DB6923F44F4222F0BC
:102DF000FF027B685B685C498B4219D8FB68591EEF
:102E00007B685B685B00B1FBF3F3591C40F6FC7315
:102E10000B40002B0AD0FB68591E7B685B685B0087
:102E2000B1FBF3F30133C3F30B0351E004234FE091
:102E30007B689B68002B11D1FB68581E7B68596822
:102E40000B465B000B44B0FBF3F30133C3F30B03FE
:102E5000002B0CBF01230023DBB212E0FB68581EDD
:102E60007B6859680B469B000B4499000B44B0FBF0
:102E7000F3F30133C3F30B03002B0CBF0123002337
:102E8000DBB2002B01D0012322E07B689B68002B82
:102E90000ED1FB68581E7B6859680B465B000B44DB
:102EA000B0FBF3F30133C3F30B0343F400430FE030
:102EB000FB68581E7B6859680B469B000B449900C1
:102EC0000B44B0FBF3F30133C3F30B0343F4404370
:102ED000796809681343CB617B681B681B6823F022
:102EE000C0017B68DA697B681B6A1A437B681B68D0
:102EF0000A431A607B681B689B6823F4034323F032
:102F0000FF037A6811697A68D26811437A68126897
:102F10000B4393607B681B68DB6823F0FF017B68D1
:102F20005A697B689B691A437B681B680A43DA60AD
:102F30007B681B681A687B681B6842F001021A6094
:102F40007B6800221A647B68202283F83D207B681E
:102F500000221A637B68002283F83E200023184673
:102F60001037BD4680BD00BFA08601007F841E00D3
:102F7000FF083D0083DE1B43D34D621080B588B04F
:102F800000AF78607B68002B01D1012328E17B68CA
:102F900093F84130DBB2002B09D17B68002283F823
:102FA00040207B68904A5A637868FEF79BFD7B68F7
:102FB000022283F841207B681B68DB697A6812680B
:102FC00023F47B6323F00F03D3617B681B68022229
:102FD0001A627B685B69022B60D07B68DB68002B20
:102FE00002D110237B6101E020237B617B689B6819
:102FF000202B02D87B695B007B61012002F050FC32
:10300000F8607B681B69B3F5007F25D17B68DB68BE
:10301000002B10D07B699B00FA68B2FBF3F21346D9
:103020009B0013445B001A467B685B69B2FBF3F3B9
:1030300005333B611FE07B69DB00FA68B2FBF3F20A
:1030400013469B0013445B001A467B685B69B2FB26
:10305000F3F305333B610EE0FA687B69B2FBF3F2F0
:1030600013469B0013445B001A467B685B69B2FB06
:10307000F3F305333B613B695C4AA2FB0323DB08A6
:103080003B613B6903F00103BB613A69BB69D31A39
:103090005B08FB61BB691B02BB6103E00223FB61B0
:1030A0000023BB61FB69012B02D9FB69FF2B07D908
:1030B0007B685B6C43F010027B685A6401238FE0ED
:1030C0007B681A69BB6942EA03017B681B68FA697D
:1030D0000A431A627B681B68DB6923F47B6323F075
:1030E0000F037A6851687A68926811437A68D268E7
:1030F00011437A6892690A431A437B681B6842F459
:103100000062DA617B681B6A012B61D17B68384AF7
:103110005A637B681B68374A934201D1364B01E002
:103120004FF04023DB697A68126832498A4201D144
:10313000314A01E04FF0402223F47B6323F00F0378
:10314000D3617B681B682B4A934201D12A4B01E073
:103150004FF0402302221A627B681B68254A934283
:1031600001D1254B01E04FF04023DB697B817B6877
:103170005B68B3F5007F03D07B685B68002B03D1ED
:103180004FF480733B6101E000233B613B699AB2DD
:103190007B689B689BB213439AB27B68DB689BB2E7
:1031A00013439AB27B689B699BB213439AB27B89A3
:1031B00013439BB243F400637B817B681B680D4A19
:1031C000934201D10C4B01E04FF040237A89DA6140
:1031D0007B6800225A647B68012283F84120002327
:1031E00018462037BD4680BDF3320008CDCCCCCC8C
:1031F00009340008003800400034004080B483B037
:1032000000AF786000BF0C37BD465DF8047B7047A7
:1032100080B483B000AF786000BF0C37BD465DF866
:10322000047B704780B483B000AF786000BF0C3778
:10323000BD465DF8047B704780B582B000AF786012
:103240007B685B6A1A887B681B68DA607B685B6AEC
:103250009A1C7B685A627B685B8D9BB2013B9AB279
:103260007B685A857B685B8D9BB2002B0ED17B6897
:103270001B685A687B681B6822F0A0025A607B6852
:10328000012283F841207868FFF7B8FF00BF0837B4
:10329000BD4680BD80B582B000AF78607B681B689A
:1032A000DA687B68DB6A92B21A807B68DB6A9A1CF8
:1032B0007B68DA627B685B8E9BB2013B9AB27B686B
:1032C0005A867B685B8E9BB2002B0ED17B681B6895
:1032D0005A687B681B6822F060025A607B68012292
:1032E00083F841207868FFF793FF00BF0837BD4699
:1032F00080BD80B586B000AF78607B681B689B6836
:103300007B617B6893F84130DBB2042B3AD17B6957
:1033100003F00103012B09D17B681B685B6803F094
:103320004003402B02D17868FFF7B4FF7B6903F0BC
:103330004003402B26D17B681B685B6803F02003A9
:10334000202B1FD17B681B685A687B681B6822F0A2
:1033500060025A6000233B617B681B68DB683B614D
:103360007B681B689B683B613B697B68012283F833
:1033700041207B685B6C43F002027B685A6478688A
:10338000FFF750FF7B6893F84130DBB2032B36D157
:103390007B6903F00203022B09D17B681B685B6821
:1033A00003F08003802B02D17868FFF745FF7B692B
:1033B00003F00803082B22D17B681B685B6803F0CD
:1033C0002003202B1BD17B681B685A687B681B6815
:1033D00022F0A0025A600023FB607B681B689B6898
:1033E000FB60FB687B68012283F841207B685B6C93
:1033F00043F004027B685A647868FFF713FF00BF4C
:103400001837BD4680BD000080B588B000AF786039
:103410007B681B689B68FB617B681B68924A9342D0
:1034200001D1924B01E04FF040239B68BB617B6868
:103430001B685B687B617B681B688B4A934201D188
:103440008A4B01E04FF040235B683B617B685B681F
:10345000B3F5007F04D07B685B68002B40F0998057
:10346000FB6903F00203022B07D17B6903F08003A1
:10347000002B02D0786800F025F9BB6903F0010346
:10348000012B07D13B6903F04003002B02D0786881
:1034900000F0C8F9BB6903F04003402B3AD13B6907
:1034A00003F02003002B35D07B681B686E4A9342E3
:1034B00001D16E4B01E04FF040235A687B681B68D6
:1034C00069498B4201D1694B01E04FF0402322F062
:1034D00060025A607B681B685A687B681B6822F030
:1034E000A0025A600023FB607B681B68DB68FB60FE
:1034F0007B681B689B68FB60FB687B68012283F824
:1035000041207B685B6C43F002027B685A647868F8
:10351000FFF788FEFB6903F00803082B40F0C38027
:103520007B6903F02003002B00F0BD807B681B68E3
:103530005A687B681B6822F0A0025A607B681B688F
:10354000494A934201D1494B01E04FF040235A6868
:103550007B681B6844498B4201D1444B01E04FF02A
:10356000402322F060025A600023BB607B681B6826
:103570009B68BB60BB687B68012283F841207B6845
:103580005B6C43F004027B685A647868FFF74AFE7C
:1035900089E0BB6903F00203022B07D13B6903F00A
:1035A0008003002B02D0786800F0BEF8FB6903F0BE
:1035B0000103012B07D17B6903F04003002B02D0EC
:1035C000786800F0FDF8FB6903F04003402B2FD131
:1035D0007B6903F02003002B2AD07B681B685A68A4
:1035E0007B681B6822F060025A607B681B681E4A79
:1035F000934201D11D4B01E04FF040235A687B6894
:103600001B6819498B4201D1184B01E04FF0402350
:1036100022F0A0025A607B68012283F841207B6877
:103620005B6C43F002027B685A647868FFF7FAFD2E
:10363000BB6903F00803082B36D13B6903F0200374
:10364000002B31D07B681B68074A934201D1074B9E
:1036500001E04FF040235A687B681B6802498B42A7
:1036600006D1024B06E000BF0038004000340040A5
:103670004FF0402322F0A0025A607B681B685A6812
:103680007B681B6822F060025A607B68012283F825
:1036900041207B685B6C43F004027B685A64786865
:1036A000FFF7C0FD00E000BF00BF2037BD4680BD72
:1036B00080B483B000AF786000BF0C37BD465DF8C2
:1036C000047B704780B582B000AF78607B685B6A2E
:1036D000991C7A6851621A887B681B68DA607B687B
:1036E0005B8D9BB2013B9AB27B685A857B685B8D90
:1036F0009BB2002B13D17B681B685A687B681B68E0
:1037000022F0A0025A607B685B8E9BB2002B06D130
:103710007B68012283F841207868FFF7C9FF00BF6A
:103720000837BD4680BD000080B582B000AF78602C
:103730007B685B6A991C7A68516219887B681B6890
:103740001D4A934201D11D4B01E04FF040230A4630
:10375000DA607B685B8D9BB2013B9AB27B685A85CD
:103760007B685B8D9BB2002B21D17B681B68124A62
:10377000934201D1114B01E04FF040235A687B681E
:103780001B680D498B4201D10C4B01E04FF04023E7
:1037900022F0A0025A607B685B8E9BB2002B06D1A0
:1037A0007B68012283F841207868FFF781FF00BF22
:1037B0000837BD4680BD00BF0038004000340040DF
:1037C00080B582B000AF78607B681B68D8687B6882
:1037D000DB6A991C7A68D16282B21A807B685B8E40
:1037E0009BB2013B9AB27B685A867B685B8E9BB228
:1037F000002B13D17B681B685A687B681B6822F01A
:1038000060025A607B685B8D9BB2002B06D17B689F
:10381000012283F841207868FFF74AFF00BF08378C
:10382000BD4680BD80B582B000AF78607B681B6804
:10383000204A934201D1204B01E04FF04023D86849
:103840007B68DB6A991C7A68D16282B21A807B68D5
:103850005B8E9BB2013B9AB27B685A867B685B8E1B
:103860009BB2002B21D17B681B68124A934201D185
:10387000114B01E04FF040235A687B681B680D49EB
:103880008B4201D10C4B01E04FF0402322F060024B
:103890005A607B685B8D9BB2002B06D17B6801224E
:1038A00083F841207868FFF703FF00BF0837BD4663
:1038B00080BD00BF0038004000340040F0B58FB03C
:1038C0000AAF78607B68002B01D101230FE17B6890
:1038D0001B68BB607B6893F8BD34DBB2002B06D15C
:1038E0007B68002283F8BC24786805F055FE7B686D
:1038F000032283F8BD24BB68DB6B03F48073002BC9
:1039000002D17B6800221A617B681B68184602F0AE
:103910003CF97B681B683B607E686D4606F11004CD
:103920000FCC0FC50FCC0FC594E8030085E803004A
:10393000331D0ECB386802F013F80346002B05D078
:103940007B68022283F8BD240123D0E07B681B68DA
:103950000021184602F02AF90023FB734AE0FA7BA3
:1039600079681346DB0013449B000B443D3301226E
:103970001A70FA7B79681346DB0013449B000B44F2
:103980003C33FA7B1A70FA7BFB7B98B2796813465A
:10399000DB0013449B000B44443302461A80FA7B3D
:1039A00079681346DB0013449B000B44403300222C
:1039B0001A70FA7B79681346DB0013449B000B44B2
:1039C000483300221A60FA7B79681346DB001344FF
:1039D0009B000B444C3300221A60FA7B7968134633
:1039E000DB0013449B000B44543300221A60FB7B22
:1039F0000133FB73FA7B7B685B689A42AFD3002389
:103A0000FB7344E0FA7B79681346DB0013449B00A8
:103A10000B4403F27D2300221A70FA7B7968134667
:103A2000DB0013449B000B4403F51F73FA7B1A70F1
:103A3000FA7B79681346DB0013449B000B4403F5C3
:103A4000207300221A70FA7B79681346DB00134456
:103A50009B000B4403F5227300221A60FA7B7968FD
:103A60001346DB0013449B000B4403F52373002231
:103A70001A60FA7B79681346DB0013449B000B4401
:103A800003F5257300221A60FB7B0133FB73FA7B7D
:103A90007B685B689A42B5D37B681B683B607E6835
:103AA0006D4606F110040FCC0FC50FCC0FC594E87E
:103AB000030085E80300331D0ECB386802F0C2F81E
:103AC0000346002B05D07B68022283F8BD24012326
:103AD0000DE07B68002283F838207B68012283F8A0
:103AE000BD247B681B68184603F011FA00231846B2
:103AF0001437BD46F0BD80B584B000AF78607B68F8
:103B00001B68FB607B6893F8BC34012B01D1022356
:103B100020E07B68012283F8BC247B689B6A012B30
:103B200009D17B689B69012B05D0FB689B6B43F433
:103B30008032FB689A637B681B68184602F014F8B1
:103B40007B681B68184603F0C1F97B68002283F884
:103B5000BC24002318461037BD4680BD90B58DB0FB
:103B600000AF78607B681B683B623B6AFB617B68E7
:103B70001B68184603F07FFA0346002B40F08A8446
:103B80007B681B68184603F0E3F90346002B00F03E
:103B90008084FB6903F500639B681B0AC3F30D0275
:103BA0007B68C3F8FC247B681B68184603F0D0F9D7
:103BB000034603F00203022B07D17B681B685A6996
:103BC0007B681B6802F002025A617B681B6818461A
:103BD00003F0BEF9034603F01003102B61D17B689C
:103BE0001B689A697B681B6822F010029A613B6A25
:103BF0001B6ABB61BB6903F00F021346DB00134471
:103C00009B0003F51E737A68134404337B61BB6920
:103C10005B0C03F00F03022B24D1BA6947F6F07353
:103C20001340002B35D07B691969BB691B099BB216
:103C3000C3F30A039BB21A46386A02F0F5FF7B69A8
:103C40001A69BB691B09C3F30A031A447B691A6129
:103C50007B691A6ABB691B09C3F30A031A447B69AF
:103C60001A6216E0BB695B0C03F00F03062B10D140
:103C70007B6803F2C44308221946386A02F0D4FF75
:103C80007B691A6ABB691B09C3F30A031A447B697F
:103C90001A627B681B689A697B681B6842F0100295
:103CA0009A617B681B68184603F052F9034603F4D7
:103CB0000023B3F5002F40F0A78000237B627B68D0
:103CC0001B68184603F057F9B86299E0BB6A03F025
:103CD0000103002B00F08E807B681B687A6AD2B2E9
:103CE0001146184603F07BF938613B6903F0010384
:103CF000002B0CD07B6A5A01FB69134403F5306337
:103D00001A4601239360796A786800F0C3FE3B6924
:103D100003F00803002B0CD07B6A5A01FB691344A3
:103D200003F530631A4608239360796A786800F0D7
:103D300099FF3B6903F01003002B08D07B6A5A01FE
:103D4000FB69134403F530631A46102393603B6903
:103D500003F00203002B30D03B6A5B6903F0800361
:103D6000802B09D1FB6903F500635B68FA6902F5F2
:103D7000006243F4806353607A6A1346DB001344A5
:103D80009B0003F51E737A68134404337B617B69DF
:103D9000DB78012B08D17B690022DA707B6ADBB209
:103DA0001946786805F002FD7B6A5A01FB691344E5
:103DB00003F530631A46022393603B6903F0200346
:103DC000002B08D07B6A5A01FB69134403F530636A
:103DD0001A46202393603B6903F40053002B09D05B
:103DE0007B6A5A01FB69134403F530631A464FF4AA
:103DF000005393607B6A01337B62BB6A5B08BB62E2
:103E0000BB6A002B7FF462AF7B681B68184603F027
:103E10009FF8034603F48023B3F5802F40F0DB8046
:103E20007B681B68184603F0C0F8B86200237B6209
:103E3000CDE0BB6A03F00103002B00F0C2807B6879
:103E40001B687A6AD2B21146184603F0E6F8386168
:103E50003B6903F00103002B57D07B6A03F00F038B
:103E6000012202FA03F3FB60FB6903F500635A6B5E
:103E7000FB68DB43F96901F5006113404B637B6A22
:103E80005A01FB69134403F510631A46012393603A
:103E90007B681B69012B32D179687A6A1346DB0093
:103EA00013449B000B444C33196878687A6A1346B4
:103EB000DB0013449B00034448331B6819447868B3
:103EC0007A6A1346DB0013449B0003444C331960A9
:103ED0007B6A002B13D179687A6A1346DB0013449E
:103EE0009B000B4454331B68002B08D17B68186877
:103EF0007B6803F2C4431A46012103F0EDF87B6AA4
:103F0000DBB21946786805F0D6FB3B6903F008037D
:103F1000002B08D07B6A5A01FB69134403F5106338
:103F20001A46082393603B6903F01003002B08D066
:103F30007B6A5A01FB69134403F510631A46102388
:103F400093603B6903F04003002B08D07B6A5A0161
:103F5000FB69134403F510631A46402393603B69E1
:103F600003F00203002B23D0796A386A01F0CEFFF8
:103F70007A6A1346DB0013449B0038337A68134493
:103F800004337B617B69DB78012B08D17B690022DC
:103F9000DA707B6ADBB21946786805F019FC7B6A37
:103FA0005A01FB69134403F510631A460223936018
:103FB0003B6903F08003002B03D0796A786800F036
:103FC000DBFC7B6A01337B62BB6A5B08BB62BB6A5A
:103FD000002B7FF42EAF7B681B68184602F0B8FFF9
:103FE000034603F00043B3F1004F22D1FB6903F510
:103FF00000635B68FA6902F5006223F00103536015
:104000007B6893F8F434012B08D17B68002283F895
:10401000F4240021786800F0C3FE02E0786805F01F
:10402000B7FB7B681B685A697B681B6802F000421B
:104030005A617B681B68184602F08AFF034603F446
:104040000063B3F5006F12D1FB6903F500639B6851
:1040500003F00103012B02D1786805F073FB7B6844
:104060001B685A697B681B6802F400625A617B68AE
:104070001B68184602F06CFF034603F48053B3F547
:10408000805F40F0B780FB6903F500635B68FA6905
:1040900002F5006223F0010353607B681B68102166
:1040A000184601F033FF0023FB6246E0FB6A5A0129
:1040B000FB69134403F510631A464FF67F33936090
:1040C000FB6A5A01FB69134403F510631B68FA6A23
:1040D0005101FA690A4402F5106223F400131360D7
:1040E000FB6A5A01FB69134403F530631A464FF625
:1040F0007F339360FB6A5A01FB69134403F5306315
:104100001B68FA6A5101FA690A4402F5306223F425
:1041100000131360FB6A5A01FB69134403F5306313
:104120001B68FA6A5101FA690A4402F5306243F0E9
:1041300000631360FB6A0133FB627B685B68FA6AA9
:104140009A42B3D3FB6903F50063DB69FA6902F5B0
:10415000006243F00113D3617B681B6B002B16D008
:10416000FB6903F50063D3F88430FA6902F5006255
:1041700043F00B03C2F88430FB6903F500635B6C0A
:10418000FA6902F5006243F00B03536415E0FB6922
:1041900003F500635B69FA6902F5006243F40053BA
:1041A00043F02B035361FB6903F500631B69FA6954
:1041B00002F5006243F00B031361FB6903F5006332
:1041C0001B68FA6902F5006223F4FE6313607B68E2
:1041D00018687B681B69D9B27B6803F2C4431A462E
:1041E00002F07AFF7B681B685A697B681B6802F4DF
:1041F00080525A617B681B68184602F0A9FE03468C
:1042000003F40053B3F5005F24D17B681B681846A4
:1042100002F03FFF7B681B68184601F0F4FE03467E
:104220001A467B68DA607B681C6801F029FA01464F
:104230007B68DB68DBB21A46204601F0F3FB786846
:1042400005F061FA7B681B685A697B681B6802F499
:1042500000525A617B681B68184602F079FE0346DB
:1042600003F00803082B0AD1786805F03EFA7B6852
:104270001B685A697B681B6802F008025A617B68F8
:104280001B68184602F064FE034603F08003802B8F
:1042900022D13B6A9B6923F080023B6A9A61012329
:1042A0007B6214E079687A6A1346DB0013449B0052
:1042B0000B4403F27F231B78012B05D17B6ADBB211
:1042C0001946786800F027FB7B6A01337B627B68C4
:1042D0005B687A6A9A42E5D37B681B68184602F0ED
:1042E00037FE034603F48013B3F5801F3BD101234F
:1042F0007B622BE07B6A5A01FB69134403F5106370
:104300001B68BB6179687A6A1346DB0013449B0023
:104310000B4440331B78012B15D1BB69002B12DAFB
:1043200079687A6A1346DB0013449B000B443F33E1
:1043300001221A707B6ADBB263F07F03DBB219469D
:10434000786800F0E8FA7B6A01337B627B685B681F
:104350007A6A9A42CED37B681B685A697B681B686D
:1043600002F480125A617B681B68184602F0F0FD67
:10437000034603F40013B3F5001F55D101237B62FC
:1043800045E07B6A5A01FB69134403F530631B68FF
:10439000BB6179687A6A1346DB0013449B000B44C7
:1043A00003F520731B78012B2ED1BB69002B2BDA70
:1043B000BB6903F480327B68D3F8FC3403F001035B
:1043C0009A4221D179687A6A1346DB0013449B0034
:1043D0000B4403F27F2301221A703B6A9B6943F06E
:1043E00080023B6A9A613B6A5B6903F08003002BA1
:1043F0000AD1FB6903F500635B68FA6902F50062A4
:1044000043F40073536007E07B6A01337B627B688F
:104410005B687A6A9A42B4D37B681B685A697B6886
:104420001B6802F400125A617B681B68184602F090
:104430008FFD034603F08043B3F1804F0AD17868C3
:1044400005F0D8F97B681B685A697B681B6802F025
:1044500080425A617B681B68184602F079FD03466A
:1044600003F00403042B15D17B681B685B68BB61F8
:10447000BB6903F00403002B02D0786805F0C8F98B
:104480007B681B6859687B681B68BA690A435A6075
:1044900000E000BF3437BD4690BD80B582B000AFAC
:1044A00078600B46FB707B6893F8BC34012B01D11C
:1044B000022313E07B68012283F8BC247B68FA782E
:1044C00083F838207B681B68FA781146184602F09A
:1044D000D7FC7B68002283F8BC24002318460837E9
:1044E000BD4680BD80B584B000AF786008461146F7
:1044F0001A460346FB700B463B801346BB700023F5
:10450000FB7297F90330002B0FDAFB7803F00F02F0
:104510001346DB0013449B0038337A68134404339A
:10452000FB60FB6801225A700FE0FB7803F00F027A
:104530001346DB0013449B0003F51E737A68134493
:104540000433FB60FB6800225A70FB7803F00F0312
:10455000DAB2FB681A703A88FB68DA60FB68BA78EE
:104560001A71FB685B78002B04D0FB681B789AB249
:10457000FB681A81BB78022B02D1FB6800225A71BA
:104580007B6893F8BC34012B01D102230EE07B68D9
:10459000012283F8BC247B681B68F968184601F087
:1045A00057FD7B68002283F8BC24FB7A184610373D
:1045B000BD4680BD80B584B000AF78600B46FB700F
:1045C00097F90330002B0FDAFB7803F00F02134644
:1045D000DB0013449B0038337A6813440433FB60D8
:1045E000FB6801225A700FE0FB7803F00F021346BC
:1045F000DB0013449B0003F51E737A6813440433F5
:10460000FB60FB6800225A70FB7803F00F03DAB2FC
:10461000FB681A707B6893F8BC34012B01D102232C
:104620000EE07B68012283F8BC247B681B68F96874
:10463000184601F095FD7B68002283F8BC24002316
:1046400018461037BD4680BD80B586B000AFF86013
:104650007A603B600B46FB72FB7A03F00F02134655
:10466000DB0013449B0003F51E73FA681344043304
:104670007B617B697A681A617B693A689A617B69B8
:1046800000221A627B6900225A70FB7A03F00F0342
:10469000DAB27B691A70FB681B69012B02D17A6858
:1046A0007B695A61FB7A03F00F03002B09D1FB6889
:1046B0001868FB681B69DBB21A46796902F074F866
:1046C00008E0FB681868FB681B69DBB21A46796969
:1046D00001F022FE002318461837BD4680BD80B485
:1046E00083B000AF78600B46FB70FB7803F00F02DD
:1046F00079681346DB0013449B000B4403F52773D2
:104700001B6818460C37BD465DF8047B704780B5C2
:1047100086B000AFF8607A603B600B46FB72FB7AB4
:1047200003F00F021346DB0013449B003833FA6892
:10473000134404337B617B697A681A617B693A6848
:104740009A617B6900221A627B6901225A70FB7AA6
:1047500003F00F03DAB27B691A70FB681B69012B47
:1047600002D17A687B695A61FB7A03F00F03002B50
:1047700009D1FB681868FB681B69DBB21A467969C6
:1047800002F012F808E0FB681868FB681B69DBB2EE
:104790001A46796901F0C0FD002318461837BD4656
:1047A00080BD80B584B000AF78600B46FB70FB78AD
:1047B00003F00F027B685B689A4201D9012350E045
:1047C00097F90330002B0FDAFB7803F00F02134642
:1047D000DB0013449B0038337A6813440433FB60D6
:1047E000FB6801225A700DE0FA781346DB0013448F
:1047F0009B0003F51E737A6813440433FB60FB6867
:1048000000225A70FB6801229A70FB7803F00F03B4
:10481000DAB2FB681A707B6893F8BC34012B01D1C3
:1048200002231EE07B68012283F8BC247B681B689E
:10483000F968184602F050FAFB7803F00F03002BDA
:104840000AD17B6818687B681B69D9B27B6803F260
:10485000C4431A4602F040FC7B68002283F8BC2463
:10486000002318461037BD4680BD80B584B000AF28
:1048700078600B46FB70FB7803F00F027B685B6887
:104880009A4201D9012342E097F90330002B0FDA55
:10489000FB7803F00F021346DB0013449B00383310
:1048A0007A6813440433FB60FB6801225A700FE0FE
:1048B000FB7803F00F021346DB0013449B0003F563
:1048C0001E737A6813440433FB60FB6800225A703D
:1048D000FB6800229A70FB7803F00F03DAB2FB68E2
:1048E0001A707B6893F8BC34012B01D102230EE0CF
:1048F0007B68012283F8BC247B681B68F968184632
:1049000002F058FA7B68002283F8BC240023184682
:104910001037BD4680BD80B584B000AF78600B46CF
:10492000FB7097F90330002B0CDAFB7803F00F02D1
:104930001346DB0013449B0038337A681344043376
:10494000FB600CE0FB7803F00F021346DB0013441E
:104950009B0003F51E737A6813440433FB607B6885
:104960001B68F968184602F077F80346FB72FB7A79
:1049700018461037BD4680BD80B58AB002AF78605A
:1049800039607B681B687B617B693B613A681346D1
:10499000DB0013449B0038337A6813440433FB6014
:1049A000FB681A6AFB689B699A4201D901236CE093
:1049B000FB689A69FB681B6AD31AFB61FB68DB68BA
:1049C000FA699A4202D9FB68DB68FB61FB69033331
:1049D0009B08BB612BE0FB689A69FB681B6AD31AD2
:1049E000FB61FB68DB68FA699A4202D9FB68DB6805
:1049F000FB61FB6903339B08BB61FB6819693B687A
:104A0000DAB2FB6998B27B681B69DBB2009303469C
:104A1000786902F0CBF8FB681A69FB691A44FB68F5
:104A20001A61FB681A6AFB691A44FB681A623B68E0
:104A30005A013B69134403F510639B699BB2BA6941
:104A40009A4209D8FB681A6AFB689B699A4203D2AA
:104A5000FB689B69002BBED1FB689A69FB681B6AE7
:104A60009A4211D83B6803F00F03012202FA03F3C4
:104A7000BB603B6903F500635A6BBB68DB43396974
:104A800001F5006113404B63002318462037BD46F3
:104A900080BD000080B588B000AF786039607B6869
:104AA0001B68FB61FB69BB61FB693C3304331B681A
:104AB0007B613B685A01BB69134403F530639B6813
:104AC0003B617B681B69012B7BD13B6903F00803C9
:104AD000002B15D07B69614A934240F2B9803B6953
:104AE00003F40043002B00F0B3803B685A01BB691C
:104AF000134403F530631A464FF400439360A7E074
:104B00003B6903F02003002B09D03B685A01BB69C5
:104B1000134403F530631A462023936098E03B6901
:104B200003F02803002B40F093807B694B4A9342AB
:104B30000FD93B6903F40043002B0AD03B685A01AC
:104B4000BB69134403F530631A464FF40043936086
:104B50007EE03A681346DB0013449B0003F51E73A6
:104B60007A6813440433FB60FB68DA693B685901D7
:104B7000BB690B4403F530631B69C3F31203D21AFC
:104B8000FB681A623B68002B14D1FB689B69002B01
:104B900009D17B6818687B6803F2C4431A46012177
:104BA00002F09AFA06E0FB681A69FB681B6A1A446D
:104BB000FB681A613B68DBB21946786804F060FD57
:104BC00046E07B69264A934224D13B6903F40043C3
:104BD000002B0AD03B685A01BB69134403F53063CC
:104BE0001A464FF40043936032E03B6903F0200320
:104BF000002B08D03B685A01BB69134403F53063AE
:104C00001A46202393603B68DBB21946786804F0AB
:104C100037FD1DE03B68002B14D179683A681346D4
:104C2000DB0013449B000B4403F525731B68002B2A
:104C300008D17B6818687B6803F2C4431A460021D8
:104C400002F04AFA3B68DBB21946786804F018FDB6
:104C5000002318462037BD4680BD00BF0A30544FA0
:104C60000A31544F80B586B000AF786039607B68F8
:104C70001B687B617B693B617B693C3304331B6848
:104C8000FB603B685A013B69134403F530639B6842
:104C9000BB60FB68154A93420ED9BB6803F400431E
:104CA000002B09D03B685A013B69134403F530637C
:104CB0001A464FF400439360786804F0CFFCFB6819
:104CC0000A4A93420CD97B681B69012B08D17B6887
:104CD00018687B6803F2C4431A46012102F0FCF90C
:104CE000002318461837BD4680BD00BF0A30544F18
:104CF00080B485B000AF78600B46FB7013463B80F4
:104D00007B681B685B6ABB60FB78002B07D13B8824
:104D100019047B681B68BA680A439A6228E07B68BA
:104D20001B689B6A1B0CBA681344BB600023FB73AF
:104D30000DE07B681A68FB7B40339B0013445B6883
:104D40001B0CBA681344BB60FB7B0133FB73FA7B1B
:104D5000FB78013B9A42ECD33B8818047B681968C6
:104D6000FB78013BBA68024340339B000B445A6016
:104D7000002318461437BD465DF8047B704780B4A5
:104D800083B000AF78600B467B807B681B687A88B5
:104D90005A62002318460C37BD465DF8047B704705
:104DA00080B483B000AF78600B46FB7000BF0C3757
:104DB000BD465DF8047B704780B586B000AF786073
:104DC0007B68002B01D1012367E27B681B6803F03D
:104DD0000103002B75D0884B9B6803F00C03042B58
:104DE0000CD0854B9B6803F00C03082B12D1824B2F
:104DF0005B6803F48003B3F5800F0BD17E4B1B6817
:104E000003F40033002B5BD07B685B68002B57D129
:104E1000012342E27B685B68B3F5803F06D1764BA5
:104E20001B68754A43F4803313601DE07B685B6840
:104E3000B3F5A02F0CD1704B1B686F4A43F480234D
:104E400013606D4B1B686C4A43F4803313600BE0B6
:104E5000694B1B68684A23F480331360664B1B68F8
:104E6000654A23F4802313607B685B68002B13D0B2
:104E7000FDF7A2F8386108E0FDF79EF802463B69AD
:104E8000D31A642B01D9032307E25B4B1B6803F49D
:104E90000033002BF0D014E0FDF78EF8386108E005
:104EA000FDF78AF802463B69D31A642B01D9032324
:104EB000F3E1514B1B6803F40033002BF0D100E009
:104EC00000BF7B681B6803F00203002B63D04A4BD2
:104ED0009B6803F00C03002B0BD0474B9B6803F03F
:104EE0000C03082B1CD1444B5B6803F48003002B9C
:104EF00016D1414B1B6803F00203002B05D07B68E1
:104F0000DB68012B01D00123C7E13B4B1B6823F079
:104F1000F8027B681B69DB00374913430B603AE0FA
:104F20007B68DB68002B20D0344B01221A60FDF730
:104F300043F8386108E0FDF73FF802463B69D31AB1
:104F4000022B01D90323A8E12B4B1B6803F00203BA
:104F5000002BF0D0284B1B6823F0F8027B681B69FC
:104F6000DB00254913430B6015E0244B00221A6037
:104F7000FDF722F8386108E0FDF71EF802463B69AC
:104F8000D31A022B01D9032387E11B4B1B6803F0C3
:104F90000203002BF0D17B681B6803F00803002B91
:104FA00036D07B685B69002B16D0154B01221A6046
:104FB000FDF702F8386108E0FCF7FEFF02463B69A6
:104FC000D31A022B01D9032367E10B4B5B6F03F06C
:104FD0000203002BF0D01BE0094B00221A60FCF703
:104FE000EBFF38610EE0FCF7E7FF02463B69D31A9E
:104FF000022B07D9032350E100380240000047424A
:10500000800E4742884B5B6F03F00203002BEAD10E
:105010007B681B6803F00403002B00F097800023DB
:10502000FB75814B1B6C03F08053002B0FD10023C9
:10503000BB607D4B1B6C7C4A43F0805313647A4BFE
:105040001B6C03F08053BB60BB680123FB75774B7F
:105050001B6803F48073002B18D1744B1B68734AD0
:1050600043F480731360FCF7A7FF386108E0FCF796
:10507000A3FF02463B69D31A022B01D903230CE19B
:105080006A4B1B6803F48073002BF0D07B689B682D
:10509000012B06D1644B1B6F634A43F00103136776
:1050A0001CE07B689B68052B0CD15F4B1B6F5E4A35
:1050B00043F0040313675C4B1B6F5B4A43F001032F
:1050C00013670BE0584B1B6F574A23F0010313671C
:1050D000554B1B6F544A23F0040313677B689B688E
:1050E000002B15D0FCF768FF38610AE0FCF764FF7D
:1050F00002463B69D31A41F28832934201D9032315
:10510000CBE0494B1B6F03F00203002BEED014E001
:10511000FCF752FF38610AE0FCF74EFF02463B699C
:10512000D31A41F28832934201D90323B5E03E4BB2
:105130001B6F03F00203002BEED1FB7D012B05D189
:10514000394B1B6C384A23F0805313647B689B698E
:10515000002B00F0A180344B9B6803F00C03082B5C
:105160005CD07B689B69022B41D1314B00221A60D5
:10517000FCF722FF386108E0FCF71EFF02463B699E
:10518000D31A022B01D9032387E0274B1B6803F0B6
:105190000073002BF0D17B68DA697B681B6A1A43C5
:1051A0007B685B6A9B011A437B689B6A5B08013BD7
:1051B0001B041A437B68DB6A1B061B4913434B60C5
:1051C0001B4B01221A60FCF7F7FE386108E0FCF780
:1051D000F3FE02463B69D31A022B01D903235CE09C
:1051E000114B1B6803F00073002BF0D054E0104B00
:1051F00000221A60FCF7E0FE386108E0FCF7DCFEF4
:1052000002463B69D31A022B01D9032345E0064B22
:105210001B6803F00073002BF0D13DE07B689B69B5
:10522000012B07D1012338E0003802400070004014
:10523000600047421B4B5B68FB607B689B69012BEE
:1052400028D0FB6803F480027B68DB699A4221D195
:10525000FB6803F03F027B681B6A9A421AD1FA6826
:1052600047F6C07313407A68526A9201934211D193
:10527000FB6803F440327B689B6A5B08013B1B04BC
:105280009A4207D1FB6803F070627B68DB6A1B06F9
:105290009A4201D0012300E0002318461837BD468A
:1052A00080BD00BF0038024080B584B000AF786098
:1052B00039607B68002B01D10123CCE0684B1B686F
:1052C00003F007033A689A420CD9654B3A68D2B2A8
:1052D0001A70634B1B6803F007033A689A4201D0C7
:1052E0000123B8E07B681B6803F00203002B20D089
:1052F0007B681B6803F00403002B05D0594B9B68A7
:10530000584A43F4E05393607B681B6803F008033A
:10531000002B05D0534B9B68524A43F46043936083
:10532000504B9B6823F0F0027B689B684D49134308
:105330008B607B681B6803F00103002B44D07B6803
:105340005B68012B07D1474B1B6803F40033002B2C
:1053500019D101237FE07B685B68022B03D07B6857
:105360005B68032B07D13F4B1B6803F00073002BD6
:1053700009D101236FE03B4B1B6803F00203002BB4
:1053800001D1012367E0374B9B6823F003027B6860
:105390005B68344913438B60FCF70EFEF8600AE04B
:1053A000FCF70AFE0246FB68D31A41F288329342A8
:1053B00001D903234FE02B4B9B6803F00C027B6861
:1053C0005B689B009A42EBD1254B1B6803F00703F7
:1053D0003A689A420CD2224B3A68D2B21A70204BE9
:1053E0001B6803F007033A689A4201D0012332E0B8
:1053F0007B681B6803F00403002B08D0194B9B68E3
:1054000023F4E0527B68DB68164913438B607B68AA
:105410001B6803F00803002B09D0124B9B6823F490
:1054200060427B681B69DB000E4913438B6000F010
:1054300021F802460B4B9B681B0903F00F030A4936
:10544000CB5C22FA03F3094A1360094B1B68184628
:10545000FCF76EFD002318461037BD4680BD00BF27
:10546000003C024000380240B4E500080000002083
:10547000040000202DE9B04F94B000AF00237B64FE
:105480000023FB6400233B640023BB64794B9B68CF
:1054900003F00C03082B0DD0082B00F2E180002B49
:1054A00002D0042B03D0DBE0734BBB64DBE0734B17
:1054B000BB64D8E06F4B5B6803F03F037B646D4BCC
:1054C0005B6803F48003002B63D06A4B5B689B0925
:1054D0000022BB63FA63BB6BC3F308033B63002387
:1054E0007B63D7E90C4522462B464FF000004FF076
:1054F0000001590141EAD261500102460B462146A2
:10550000511A3961294663EB01037B614FF00002B8
:105510004FF00003D7E904AB59468B01514643EAEB
:10552000916351468A015146B2EB0108594663EB3B
:1055300001094FF000024FF000034FEAC90343EAAC
:1055400058734FEAC80290469946234618EB030366
:10555000BB602B4649EB0303FB604FF000024FF0AA
:105560000003D7E9024529464B02214643EAD153BD
:1055700021464A02104619467B6C0022BB62FA6241
:10558000D7E90A23FBF788FB02460B461346FB6468
:1055900058E0384B5B689B09002218461146C0F35F
:1055A00008033B6200237B62D7E9088942464B46E9
:1055B0004FF000004FF00001590141EAD261500163
:1055C00002460B464146B2EB010A494663EB010B2A
:1055D0004FF000024FF000034FEA8B1343EA9A6347
:1055E0004FEA8A12B2EB0A0463EB0B054FF000029C
:1055F0004FF00003EB0043EA5473E20014461D46EB
:105600004346E3183B604B4645EB03037B604FF09A
:1056100000024FF00003D7E9004529468B022146DE
:1056200043EA915321468A02104619467B6C0022B8
:10563000BB61FA61D7E90623FBF72EFB02460B4656
:105640001346FB640B4B5B681B0C03F00303013335
:105650005B003B64FA6C3B6CB2FBF3F3BB6402E0AF
:10566000054BBB6400BFBB6C18465037BD46BDE858
:10567000B08F00BF003802400024F40000127A000E
:1056800080B400AF034B1B681846BD465DF8047B31
:10569000704700BF0000002080B500AFFFF7F0FFAB
:1056A0000246054B9B689B0A03F007030349CB5C4A
:1056B00022FA03F3184680BD00380240C4E5000812
:1056C00080B586B000AF786000237B6100233B612A
:1056D0007B681B6803F00103002B05D17B681B6806
:1056E00003F00403002B38D0684B00221A60FCF74B
:1056F00063FC786108E0FCF75FFC02467B69D31A23
:10570000022B01D90323BDE0614B1B6803F000634A
:10571000002BF0D17B685A687B689B689B011A4319
:105720007B68DB681B075A491343C1F88430574B29
:1057300001221A60FCF740FC786108E0FCF73CFCB1
:1057400002467B69D31A022B01D903239AE0504BFE
:105750001B6803F00063002BF0D07B681B6803F02C
:105760000203002B00F083800023FB60484B1B6C7E
:10577000474A43F080531364454B1B6C03F080533E
:10578000FB60FB68434B1B68424A43F48073136021
:10579000FCF712FC786108E0FCF70EFC02467B691E
:1057A000D31A022B01D903236CE03A4B1B6803F494
:1057B0008073002BF0D0364B1B6F03F440733B61BA
:1057C0003B69002B2FD07B681B6903F440733A6957
:1057D0009A4228D02E4B1B6F23F440733B612E4B13
:1057E00001221A602C4B00221A60294A3B69136778
:1057F000274B1B6F03F00103012B14D1FCF7DCFBDB
:1058000078610AE0FCF7D8FB02467B69D31A41F2C3
:105810008832934201D9032334E01D4B1B6F03F000
:105820000203002BEED07B681B6903F44073B3F5D1
:10583000407F0DD1164B9B6823F4F8127B681B69DF
:1058400023F0704323F44073114913438B6005E048
:105850000F4B9B680E4A23F4F81393600C4B1A6F9E
:105860007B681B69C3F30B03094913430B677B6810
:105870001B6803F00803002B03D07B681A7D074BDD
:105880001A60002318461837BD4680BD680047429D
:105890000038024000700040400E4742E01147428D
:1058A00080B487B000AF786000237B6100233B6148
:1058B0000023FB600023BB607B68012B40D1244B9D
:1058C0009B6803F40003FB60FB68002B05D0FB68BA
:1058D000012B31D11F4B7B6131E01D4B5B6803F421
:1058E0008003B3F5800F09D1194BD3F8843003F04E
:1058F0003F03194AB2FBF3F33B6108E0144BD3F8C2
:10590000843003F03F03154AB2FBF3F33B61104BC5
:10591000D3F884309B09C3F308023B6902FB03F30D
:10592000BB600B4BD3F884301B0F03F00703BA683E
:10593000B2FBF3F37B6102E000237B6100BF00BF99
:105940007B6918461C37BD465DF8047B704700BF75
:10595000003802400080BB0000127A000024F400EE
:1059600084B080B584B000AF786007F11C0080E897
:105970000E003B6B012B22D17B689B6B23F48032A2
:105980007B689A637B68DB6823F4840323F040031D
:105990007A68D3607B68DB6823F440127B68DA6046
:1059A000FB6C012B05D17B68DB6843F480127B68BC
:1059B000DA60786801F0EEFB0346FB731AE07B685F
:1059C000DB6843F040027B68DA60786801F0E2FB54
:1059D0000346FB733B6C002B06D17B689B6B43F447
:1059E00080327B689A6305E07B689B6B23F480328E
:1059F0007B689A63BB6A012B0BD17B689B6843F081
:105A000006027B689A607B689B6843F020027B6893
:105A10009A60FB7B18461037BD46BDE8804004B055
:105A20007047000080B487B000AFF860B9601346DB
:105A3000FB71FB79022B65D1BB68414A934206D9C1
:105A4000BB68404A934202D20F237B6162E0BB688D
:105A50003C4A934206D3BB683B4A934202D20E2390
:105A60007B6157E0BB68384A934206D3BB68374A2C
:105A7000934202D20D237B614CE0BB68334A9342D0
:105A800006D3BB68324A934202D80C237B6141E0C3
:105A9000BB682F4A934206D9BB682E4A934202D86C
:105AA0000B237B6136E0BB682A4A934206D9BB6868
:105AB000294A934202D80A237B612BE0BB68264A1D
:105AC000934206D9BB68254A934202D209237B61DF
:105AD00020E0BB68214A934206D3BB68204A934228
