:020000040800F2
:100000000000022049030008990300089903000832
:1000100099030008990300089903000800000000F4
:10002000000000000000000000000000990300082C
:1000300099030008000000009903000899030008D4
:100040009903000899030008990300089903000820
:100050009903000899030008990300089903000810
:100060009903000899030008990300089903000800
:1000700099030008990300089903000899030008F0
:100080009903000899030008990300080000000084
:1000900000000000000000000000000099030008BC
:1000A00099030008990300089903000899030008C0
:1000B00099030008990300089903000899030008B0
:1000C00099030008990300089903000899030008A0
:1000D0009903000899030008990300080000000034
:1000E0009903000899030008990300080000000024
:1000F000000000000000000000000000990300085C
:100100000000000099030008990300089903000803
:1001100000000000000000000000000000000000DF
:10012000990300089903000899030008990300083F
:10013000990300080000000000000000000000001B
:10014000000000000000000000000000990300080B
:10015000990300089903000899030008990300080F
:100160009903000899030008000000000000000047
:10017000000000000000000000000000000000007F
:1001800000000000990300080000000000000000CB
:0801900099030008990300081F
:1001980010B5054C237833B9044B13B10448AFF3B9
:1001A80000800123237010BD000000200000000023
:1001B800E403000808B5034B1BB103490348AFF338
:1001C800008008BD0000000004000020E4030008CF
:1001D80080B400AF574B1B6B564A43F008031363B8
:1001E800544B1B6C534A43F004031364524B1B6A71
:1001F800514A43F4003313624F4B5B6A4E4A43F44F
:10020800003353624C4B1B6A4B4A43F4001313628E
:10021800494B5B6A484A43F400135362464B1B6AD6
:10022800454A43F000731362434B5B6A424A43F00A
:1002380000735362404B1B6A3F4A43F000531362FA
:100248003D4B5B6A3C4A43F0005353623A4B1B6890
:10025800394A43F02A431360384B43F67F621A85C4
:10026800364B41F28732DA62344B1B8B9BB2334AEE
:1002780043F4C04343F060039BB213832F4B9B8B23
:100288009BB22E4A43F4C04343F060039BB293836E
:100298002A4B1B8B9BB2294A43F008039BB213835A
:1002A800264B1B889BB2254A43F080039BB21380E0
:1002B800224B1B889BB2214A43F010039BB2138048
:1002C8001E4B1B8C9BB21D4A43F001039BB2138447
:1002D8001A4B1B8C9BB2194A43F010039BB2138430
:1002E800164B1B8C9BB2154A43F480739BB2138444
:1002F800124B1B8C9BB2114A43F480539BB213845C
:100308000E4B40F69F725A630C4B40F6B7329A6315
:100318000A4B40F2CF72DA63084B40F2E7321A64B4
:10032800064B1B889BB2054A43F001039BB213801E
:10033800FEE700BF00380240000C02400008004001
:100348000D488546AFF300800C480D490D4A00233F
:1003580002E0D458C4500433C4188C42F9D30A4A72
:100368000A4C002301E013600432A242FBD300F0E0
:1003780011F8FFF72DFFFEE7000002200000002023
:100388000000002004040008000000201C000020D9
:10039800FEE7000070B50D4D0D4C641BA41000263F
:1003A800A64209D10B4D0C4C00F018F8641BA410A0
:1003B8000026A64205D170BD55F8043B9847013682
:1003C800EEE755F8043B98470136F2E7FC030008CE
:1003D800FC030008FC03000800040008F8B500BF8F
:1003E800F8BC08BC9E467047F8B500BFF8BC08BC0E
:0403F8009E46704766
:0403FC00BD01000837
:040400009901000856
:0400000508000349A3
:00000001FF
