:020000040800F2
:1000000000000220110300086103000861030008DA
:10001000610300086103000861030008000000009C
:100020000000000000000000000000006103000864
:10003000610300080000000061030008610300087C
:100040006103000861030008610300086103000800
:1000500061030008610300086103000861030008F0
:1000600061030008610300086103000861030008E0
:1000700061030008610300086103000861030008D0
:10008000610300086103000861030008000000002C
:1000900000000000000000000000000061030008F4
:1000A00061030008610300086103000861030008A0
:1000B000B902000861030008610300086103000839
:1000C0006103000861030008610300086103000880
:1000D00061030008610300086103000800000000DC
:1000E00061030008610300086103000800000000CC
:1000F0000000000000000000000000006103000894
:1001000000000000610300086103000861030008AB
:1001100000000000000000000000000000000000DF
:10012000610300086103000861030008610300081F
:100130006103000800000000000000000000000053
:100140000000000000000000000000006103000843
:1001500061030008610300086103000861030008EF
:1001600061030008610300080000000000000000B7
:10017000000000000000000000000000000000007F
:100180000000000061030008000000000000000003
:0801900061030008610300088F
:1001980010B5054C237833B9044B13B10448AFF3B9
:1001A80000800123237010BD000000200000000023
:1001B800AC03000808B5034B1BB103490348AFF370
:1001C800008008BD0000000004000020AC03000807
:1001D80080B483B000AF0346FB71FB7903F01F02C4
:1001E800074997F907305B09012000FA02F241F844
:1001F800232000BF0C37BD465DF8047B704700BF65
:1002080000E100E080B500AF1C4B1B6C1B4A43F0BB
:10021800010313644FF0804343F67F621A854FF061
:10022800804340F2E732DA624FF080439B899BB209
:100238004FF0804243F001039BB293811C20FFF7EB
:10024800C7FF4FF0804300225A624FF080430122DB
:100258001A8000BF4FF080431B8A9BB203F0010352
:10026800002BF7D04FF080431B8A9BB24FF080429F
:1002780023F001039BB2138200BF80BD0038024007
:1002880080B400AF084B1B6B074A43F008031363A5
:10029800064B1B68054A43F08073136000BFBD46D8
:1002A8005DF8047B704700BF00380240000C024034
:1002B80080B400AF4FF0804300221A820C4B1B68B9
:1002C800002B09D10B4B4FF480521A83084B1B6843
:1002D8000133074A136006E0064B4FF480525A83F5
:1002E800034B00221A6000BFBD465DF8047B7047CF
:1002F8001C000020000C024080B500AFFFF782FF11
:10030800FFF7BEFFFEE700000D488546AFF300800B
:100318000C480D490D4A002302E0D458C450043358
:10032800C4188C42F9D30A4A0A4C002301E013602E
:100338000432A242FBD300F011F8FFF7DDFFFEE71D
:10034800000002200000002000000020CC0300086C
:100358000000002020000020FEE7000070B50D4DD1
:100368000D4C641BA4100026A64209D10B4D0C4C61
:1003780000F018F8641BA4100026A64205D170BD31
:1003880055F8043B98470136EEE755F8043B984783
:100398000136F2E7C4030008C4030008C4030008D8
:1003A800C8030008F8B500BFF8BC08BC9E467047F3
:0C03B800F8B500BFF8BC08BC9E467047BA
:0403C400BD0100086F
:0403C800990100088F
:0400000508000311DB
:00000001FF
